{
  "_format": "hh-sol-artifact-1",
  "contractName": "CryptCar",
  "sourceName": "contracts/CryptCar.sol",
  "abi": [
    {
      "inputs": [
        {
          "internalType": "contract CryptCarCoin",
          "name": "_token",
          "type": "address"
        }
      ],
      "stateMutability": "nonpayable",
      "type": "constructor"
    },
    {
      "anonymous": false,
      "inputs": [
        {
          "indexed": false,
          "internalType": "uint256",
          "name": "amount",
          "type": "uint256"
        },
        {
          "indexed": false,
          "internalType": "uint256",
          "name": "carID",
          "type": "uint256"
        },
        {
          "indexed": false,
          "internalType": "address",
          "name": "owner",
          "type": "address"
        },
        {
          "indexed": false,
          "internalType": "address",
          "name": "renter",
          "type": "address"
        },
        {
          "indexed": false,
          "internalType": "string",
          "name": "reason",
          "type": "string"
        }
      ],
      "name": "DepositKept",
      "type": "event"
    },
    {
      "anonymous": false,
      "inputs": [
        {
          "indexed": false,
          "internalType": "uint256",
          "name": "amount",
          "type": "uint256"
        },
        {
          "indexed": false,
          "internalType": "uint256",
          "name": "carID",
          "type": "uint256"
        },
        {
          "indexed": false,
          "internalType": "address",
          "name": "owner",
          "type": "address"
        },
        {
          "indexed": false,
          "internalType": "address",
          "name": "renter",
          "type": "address"
        }
      ],
      "name": "DepositReturned",
      "type": "event"
    },
    {
      "inputs": [],
      "name": "getRentalCars",
      "outputs": [
        {
          "components": [
            {
              "internalType": "string",
              "name": "brand",
              "type": "string"
            },
            {
              "internalType": "string",
              "name": "model",
              "type": "string"
            },
            {
              "internalType": "string",
              "name": "imageURL",
              "type": "string"
            },
            {
              "internalType": "string",
              "name": "description",
              "type": "string"
            },
            {
              "internalType": "uint256",
              "name": "pricePerDay",
              "type": "uint256"
            },
            {
              "internalType": "uint256",
              "name": "depositAmount",
              "type": "uint256"
            },
            {
              "internalType": "string",
              "name": "termsAndConditions",
              "type": "string"
            },
            {
              "internalType": "string",
              "name": "location",
              "type": "string"
            },
            {
              "internalType": "address",
              "name": "owner",
              "type": "address"
            },
            {
              "internalType": "uint256",
              "name": "id",
              "type": "uint256"
            }
          ],
          "internalType": "struct CryptCar.RentalCar[]",
          "name": "",
          "type": "tuple[]"
        }
      ],
      "stateMutability": "view",
      "type": "function"
    },
    {
      "inputs": [
        {
          "internalType": "address",
          "name": "user",
          "type": "address"
        }
      ],
      "name": "getRenter",
      "outputs": [
        {
          "components": [
            {
              "internalType": "string",
              "name": "forename",
              "type": "string"
            },
            {
              "internalType": "string",
              "name": "surname",
              "type": "string"
            },
            {
              "internalType": "address",
              "name": "user",
              "type": "address"
            },
            {
              "internalType": "uint256",
              "name": "id",
              "type": "uint256"
            }
          ],
          "internalType": "struct CryptCar.Renter",
          "name": "",
          "type": "tuple"
        }
      ],
      "stateMutability": "view",
      "type": "function"
    },
    {
      "inputs": [
        {
          "internalType": "uint256",
          "name": "carID",
          "type": "uint256"
        },
        {
          "internalType": "string",
          "name": "reason",
          "type": "string"
        }
      ],
      "name": "keepDeposit",
      "outputs": [],
      "stateMutability": "nonpayable",
      "type": "function"
    },
    {
      "inputs": [
        {
          "internalType": "string",
          "name": "_brand",
          "type": "string"
        },
        {
          "internalType": "string",
          "name": "_model",
          "type": "string"
        },
        {
          "internalType": "string",
          "name": "_imageURL",
          "type": "string"
        },
        {
          "internalType": "string",
          "name": "_description",
          "type": "string"
        },
        {
          "internalType": "uint256",
          "name": "_pricePerDay",
          "type": "uint256"
        },
        {
          "internalType": "uint256",
          "name": "_depositAmount",
          "type": "uint256"
        },
        {
          "internalType": "string",
          "name": "_termsAndConditions",
          "type": "string"
        },
        {
          "internalType": "string",
          "name": "_location",
          "type": "string"
        }
      ],
      "name": "registerCarForRental",
      "outputs": [],
      "stateMutability": "nonpayable",
      "type": "function"
    },
    {
      "inputs": [
        {
          "internalType": "string",
          "name": "forename",
          "type": "string"
        },
        {
          "internalType": "string",
          "name": "surname",
          "type": "string"
        }
      ],
      "name": "registerForRenting",
      "outputs": [],
      "stateMutability": "nonpayable",
      "type": "function"
    },
    {
      "inputs": [
        {
          "internalType": "uint256",
          "name": "carID",
          "type": "uint256"
        },
        {
          "internalType": "uint256",
          "name": "startDate",
          "type": "uint256"
        },
        {
          "internalType": "uint256",
          "name": "endDate",
          "type": "uint256"
        }
      ],
      "name": "rentCar",
      "outputs": [],
      "stateMutability": "nonpayable",
      "type": "function"
    },
    {
      "inputs": [
        {
          "internalType": "uint256",
          "name": "carID",
          "type": "uint256"
        }
      ],
      "name": "returnDeposit",
      "outputs": [],
      "stateMutability": "nonpayable",
      "type": "function"
    }
  ],
  "bytecode": "0x60806040526000600455600060055560006006553480156200002057600080fd5b5060405162003f5d38038062003f5d83398181016040528101906200004691906200010b565b806000806101000a81548173ffffffffffffffffffffffffffffffffffffffff021916908373ffffffffffffffffffffffffffffffffffffffff160217905550506200013d565b600080fd5b600073ffffffffffffffffffffffffffffffffffffffff82169050919050565b6000620000bf8262000092565b9050919050565b6000620000d382620000b2565b9050919050565b620000e581620000c6565b8114620000f157600080fd5b50565b6000815190506200010581620000da565b92915050565b6000602082840312156200012457620001236200008d565b5b60006200013484828501620000f4565b91505092915050565b613e10806200014d6000396000f3fe608060405234801561001057600080fd5b506004361061007d5760003560e01c80636df44ce01161005b5780636df44ce0146100ea5780637a7ad838146101065780638452ff6a14610124578063a8ddfa25146101405761007d565b806318b683fb146100825780634192440d1461009e5780636a4b27f4146100ba575b600080fd5b61009c60048036038101906100979190612b17565b61015c565b005b6100b860048036038101906100b39190612b44565b610961565b005b6100d460048036038101906100cf9190612bf5565b611414565b6040516100e19190612d3a565b60405180910390f35b61010460048036038101906100ff9190612e91565b6115f1565b005b61010e61178f565b60405161011b91906131ae565b60405180910390f35b61013e600480360381019061013991906131d0565b611bcf565b005b61015a6004803603810190610155919061322c565b6123dd565b005b600061016782612546565b905080610100015173ffffffffffffffffffffffffffffffffffffffff163373ffffffffffffffffffffffffffffffffffffffff16146101dc576040517f08c379a00000000000000000000000000000000000000000000000000000000081526004016101d390613327565b60405180910390fd5b6000600360008481526020019081526020016000206040518060e00160405290816000820160405180608001604052908160008201805461021c90613376565b80601f016020809104026020016040519081016040528092919081815260200182805461024890613376565b80156102955780601f1061026a57610100808354040283529160200191610295565b820191906000526020600020905b81548152906001019060200180831161027857829003601f168201915b505050505081526020016001820180546102ae90613376565b80601f01602080910402602001604051908101604052809291908181526020018280546102da90613376565b80156103275780601f106102fc57610100808354040283529160200191610327565b820191906000526020600020905b81548152906001019060200180831161030a57829003601f168201915b505050505081526020016002820160009054906101000a900473ffffffffffffffffffffffffffffffffffffffff1673ffffffffffffffffffffffffffffffffffffffff1673ffffffffffffffffffffffffffffffffffffffff168152602001600382015481525050815260200160048201604051806101400160405290816000820180546103b590613376565b80601f01602080910402602001604051908101604052809291908181526020018280546103e190613376565b801561042e5780601f106104035761010080835404028352916020019161042e565b820191906000526020600020905b81548152906001019060200180831161041157829003601f168201915b5050505050815260200160018201805461044790613376565b80601f016020809104026020016040519081016040528092919081815260200182805461047390613376565b80156104c05780601f10610495576101008083540402835291602001916104c0565b820191906000526020600020905b8154815290600101906020018083116104a357829003601f168201915b505050505081526020016002820180546104d990613376565b80601f016020809104026020016040519081016040528092919081815260200182805461050590613376565b80156105525780601f1061052757610100808354040283529160200191610552565b820191906000526020600020905b81548152906001019060200180831161053557829003601f168201915b5050505050815260200160038201805461056b90613376565b80601f016020809104026020016040519081016040528092919081815260200182805461059790613376565b80156105e45780601f106105b9576101008083540402835291602001916105e4565b820191906000526020600020905b8154815290600101906020018083116105c757829003601f168201915b50505050508152602001600482015481526020016005820154815260200160068201805461061190613376565b80601f016020809104026020016040519081016040528092919081815260200182805461063d90613376565b801561068a5780601f1061065f5761010080835404028352916020019161068a565b820191906000526020600020905b81548152906001019060200180831161066d57829003601f168201915b505050505081526020016007820180546106a390613376565b80601f01602080910402602001604051908101604052809291908181526020018280546106cf90613376565b801561071c5780601f106106f15761010080835404028352916020019161071c565b820191906000526020600020905b8154815290600101906020018083116106ff57829003601f168201915b505050505081526020016008820160009054906101000a900473ffffffffffffffffffffffffffffffffffffffff1673ffffffffffffffffffffffffffffffffffffffff1673ffffffffffffffffffffffffffffffffffffffff1681526020016009820154815250508152602001600e8201548152602001600f820154815260200160108201548152602001601182015481526020016012820160009054906101000a900460ff16151515158152505090508060c00151610812576040517f08c379a000000000000000000000000000000000000000000000000000000000815260040161080990613419565b60405180910390fd5b8060800151421015610859576040517f08c379a0000000000000000000000000000000000000000000000000000000008152600401610850906134ab565b60405180910390fd5b600061086c826000015160400151611414565b9050610877846129f4565b60008054906101000a900473ffffffffffffffffffffffffffffffffffffffff1673ffffffffffffffffffffffffffffffffffffffff1663b2232a7f82604001518560a001516040518363ffffffff1660e01b81526004016108da9291906134e9565b600060405180830381600087803b1580156108f457600080fd5b505af1158015610908573d6000803e3d6000fd5b505050507f5a566b45dd9b189fc1b27321edb1190ebc23f70a8af381f1b7128a596f9c83b88360a0015184610120015185610100015184604001516040516109539493929190613512565b60405180910390a150505050565b600061096c84612546565b9050600061097933611414565b905060008160600151036109c2576040517f08c379a00000000000000000000000000000000000000000000000000000000081526004016109b9906135c9565b60405180910390fd5b60006003600084610120015181526020019081526020016000206040518060e001604052908160008201604051806080016040529081600082018054610a0790613376565b80601f0160208091040260200160405190810160405280929190818152602001828054610a3390613376565b8015610a805780601f10610a5557610100808354040283529160200191610a80565b820191906000526020600020905b815481529060010190602001808311610a6357829003601f168201915b50505050508152602001600182018054610a9990613376565b80601f0160208091040260200160405190810160405280929190818152602001828054610ac590613376565b8015610b125780601f10610ae757610100808354040283529160200191610b12565b820191906000526020600020905b815481529060010190602001808311610af557829003601f168201915b505050505081526020016002820160009054906101000a900473ffffffffffffffffffffffffffffffffffffffff1673ffffffffffffffffffffffffffffffffffffffff1673ffffffffffffffffffffffffffffffffffffffff16815260200160038201548152505081526020016004820160405180610140016040529081600082018054610ba090613376565b80601f0160208091040260200160405190810160405280929190818152602001828054610bcc90613376565b8015610c195780601f10610bee57610100808354040283529160200191610c19565b820191906000526020600020905b815481529060010190602001808311610bfc57829003601f168201915b50505050508152602001600182018054610c3290613376565b80601f0160208091040260200160405190810160405280929190818152602001828054610c5e90613376565b8015610cab5780601f10610c8057610100808354040283529160200191610cab565b820191906000526020600020905b815481529060010190602001808311610c8e57829003601f168201915b50505050508152602001600282018054610cc490613376565b80601f0160208091040260200160405190810160405280929190818152602001828054610cf090613376565b8015610d3d5780601f10610d1257610100808354040283529160200191610d3d565b820191906000526020600020905b815481529060010190602001808311610d2057829003601f168201915b50505050508152602001600382018054610d5690613376565b80601f0160208091040260200160405190810160405280929190818152602001828054610d8290613376565b8015610dcf5780601f10610da457610100808354040283529160200191610dcf565b820191906000526020600020905b815481529060010190602001808311610db257829003601f168201915b505050505081526020016004820154815260200160058201548152602001600682018054610dfc90613376565b80601f0160208091040260200160405190810160405280929190818152602001828054610e2890613376565b8015610e755780601f10610e4a57610100808354040283529160200191610e75565b820191906000526020600020905b815481529060010190602001808311610e5857829003601f168201915b50505050508152602001600782018054610e8e90613376565b80601f0160208091040260200160405190810160405280929190818152602001828054610eba90613376565b8015610f075780601f10610edc57610100808354040283529160200191610f07565b820191906000526020600020905b815481529060010190602001808311610eea57829003601f168201915b505050505081526020016008820160009054906101000a900473ffffffffffffffffffffffffffffffffffffffff1673ffffffffffffffffffffffffffffffffffffffff1673ffffffffffffffffffffffffffffffffffffffff1681526020016009820154815250508152602001600e8201548152602001600f820154815260200160108201548152602001601182015481526020016012820160009054906101000a900460ff16151515158152505090506000816040015114611000576040517f08c379a0000000000000000000000000000000000000000000000000000000008152600401610ff790613635565b60405180910390fd5b60006018603c8088886110139190613684565b61101d91906136e7565b61102791906136e7565b61103191906136e7565b905060008185608001516110459190613718565b905060008060009054906101000a900473ffffffffffffffffffffffffffffffffffffffff1673ffffffffffffffffffffffffffffffffffffffff1663a665c4a4336040518263ffffffff1660e01b81526004016110a3919061375a565b602060405180830381865afa1580156110c0573d6000803e3d6000fd5b505050506040513d601f19601f820116820180604052508101906110e4919061378a565b90508560a00151826110f691906137b7565b811015611138576040517f08c379a000000000000000000000000000000000000000000000000000000000815260040161112f9061385d565b60405180910390fd5b6006600081548092919061114b9061387d565b919050555060006040518060e0016040528087815260200188815260200160065481526020018a81526020018981526020014281526020016001151581525090508060036000896101200151815260200190815260200160002060008201518160000160008201518160000190816111c39190613a71565b5060208201518160010190816111d99190613a71565b5060408201518160020160006101000a81548173ffffffffffffffffffffffffffffffffffffffff021916908373ffffffffffffffffffffffffffffffffffffffff160217905550606082015181600301555050602082015181600401600082015181600001908161124b9190613a71565b5060208201518160010190816112619190613a71565b5060408201518160020190816112779190613a71565b50606082015181600301908161128d9190613a71565b506080820151816004015560a0820151816005015560c08201518160060190816112b79190613a71565b5060e08201518160070190816112cd9190613a71565b506101008201518160080160006101000a81548173ffffffffffffffffffffffffffffffffffffffff021916908373ffffffffffffffffffffffffffffffffffffffff16021790555061012082015181600901555050604082015181600e0155606082015181600f01556080820151816010015560a0820151816011015560c08201518160120160006101000a81548160ff02191690831515021790555090505060008054906101000a900473ffffffffffffffffffffffffffffffffffffffff1673ffffffffffffffffffffffffffffffffffffffff16637bf7b3e633896101000151868b60a001516040518563ffffffff1660e01b81526004016113d69493929190613b43565b600060405180830381600087803b1580156113f057600080fd5b505af1158015611404573d6000803e3d6000fd5b5050505050505050505050505050565b61141c612a26565b600260008373ffffffffffffffffffffffffffffffffffffffff1673ffffffffffffffffffffffffffffffffffffffff16815260200190815260200160002060405180608001604052908160008201805461147690613376565b80601f01602080910402602001604051908101604052809291908181526020018280546114a290613376565b80156114ef5780601f106114c4576101008083540402835291602001916114ef565b820191906000526020600020905b8154815290600101906020018083116114d257829003601f168201915b5050505050815260200160018201805461150890613376565b80601f016020809104026020016040519081016040528092919081815260200182805461153490613376565b80156115815780601f1061155657610100808354040283529160200191611581565b820191906000526020600020905b81548152906001019060200180831161156457829003601f168201915b505050505081526020016002820160009054906101000a900473ffffffffffffffffffffffffffffffffffffffff1673ffffffffffffffffffffffffffffffffffffffff1673ffffffffffffffffffffffffffffffffffffffff1681526020016003820154815250509050919050565b600460008154809291906116049061387d565b919050555060006040518061014001604052808a81526020018981526020018881526020018781526020018681526020018581526020018481526020018381526020013373ffffffffffffffffffffffffffffffffffffffff168152602001600454815250905060018190806001815401808255809150506001900390600052602060002090600a020160009091909190915060008201518160000190816116ac9190613a71565b5060208201518160010190816116c29190613a71565b5060408201518160020190816116d89190613a71565b5060608201518160030190816116ee9190613a71565b506080820151816004015560a0820151816005015560c08201518160060190816117189190613a71565b5060e082015181600701908161172e9190613a71565b506101008201518160080160006101000a81548173ffffffffffffffffffffffffffffffffffffffff021916908373ffffffffffffffffffffffffffffffffffffffff16021790555061012082015181600901555050505050505050505050565b60606001805480602002602001604051908101604052809291908181526020016000905b82821015611bc657838290600052602060002090600a0201604051806101400160405290816000820180546117e790613376565b80601f016020809104026020016040519081016040528092919081815260200182805461181390613376565b80156118605780601f1061183557610100808354040283529160200191611860565b820191906000526020600020905b81548152906001019060200180831161184357829003601f168201915b5050505050815260200160018201805461187990613376565b80601f01602080910402602001604051908101604052809291908181526020018280546118a590613376565b80156118f25780601f106118c7576101008083540402835291602001916118f2565b820191906000526020600020905b8154815290600101906020018083116118d557829003601f168201915b5050505050815260200160028201805461190b90613376565b80601f016020809104026020016040519081016040528092919081815260200182805461193790613376565b80156119845780601f1061195957610100808354040283529160200191611984565b820191906000526020600020905b81548152906001019060200180831161196757829003601f168201915b5050505050815260200160038201805461199d90613376565b80601f01602080910402602001604051908101604052809291908181526020018280546119c990613376565b8015611a165780601f106119eb57610100808354040283529160200191611a16565b820191906000526020600020905b8154815290600101906020018083116119f957829003601f168201915b505050505081526020016004820154815260200160058201548152602001600682018054611a4390613376565b80601f0160208091040260200160405190810160405280929190818152602001828054611a6f90613376565b8015611abc5780601f10611a9157610100808354040283529160200191611abc565b820191906000526020600020905b815481529060010190602001808311611a9f57829003601f168201915b50505050508152602001600782018054611ad590613376565b80601f0160208091040260200160405190810160405280929190818152602001828054611b0190613376565b8015611b4e5780601f10611b2357610100808354040283529160200191611b4e565b820191906000526020600020905b815481529060010190602001808311611b3157829003601f168201915b505050505081526020016008820160009054906101000a900473ffffffffffffffffffffffffffffffffffffffff1673ffffffffffffffffffffffffffffffffffffffff1673ffffffffffffffffffffffffffffffffffffffff168152602001600982015481525050815260200190600101906117b3565b50505050905090565b6000611bda83612546565b905080610100015173ffffffffffffffffffffffffffffffffffffffff163373ffffffffffffffffffffffffffffffffffffffff1614611c4f576040517f08c379a0000000000000000000000000000000000000000000000000000000008152600401611c4690613327565b60405180910390fd5b6000600360008581526020019081526020016000206040518060e001604052908160008201604051806080016040529081600082018054611c8f90613376565b80601f0160208091040260200160405190810160405280929190818152602001828054611cbb90613376565b8015611d085780601f10611cdd57610100808354040283529160200191611d08565b820191906000526020600020905b815481529060010190602001808311611ceb57829003601f168201915b50505050508152602001600182018054611d2190613376565b80601f0160208091040260200160405190810160405280929190818152602001828054611d4d90613376565b8015611d9a5780601f10611d6f57610100808354040283529160200191611d9a565b820191906000526020600020905b815481529060010190602001808311611d7d57829003601f168201915b505050505081526020016002820160009054906101000a900473ffffffffffffffffffffffffffffffffffffffff1673ffffffffffffffffffffffffffffffffffffffff1673ffffffffffffffffffffffffffffffffffffffff16815260200160038201548152505081526020016004820160405180610140016040529081600082018054611e2890613376565b80601f0160208091040260200160405190810160405280929190818152602001828054611e5490613376565b8015611ea15780601f10611e7657610100808354040283529160200191611ea1565b820191906000526020600020905b815481529060010190602001808311611e8457829003601f168201915b50505050508152602001600182018054611eba90613376565b80601f0160208091040260200160405190810160405280929190818152602001828054611ee690613376565b8015611f335780601f10611f0857610100808354040283529160200191611f33565b820191906000526020600020905b815481529060010190602001808311611f1657829003601f168201915b50505050508152602001600282018054611f4c90613376565b80601f0160208091040260200160405190810160405280929190818152602001828054611f7890613376565b8015611fc55780601f10611f9a57610100808354040283529160200191611fc5565b820191906000526020600020905b815481529060010190602001808311611fa857829003601f168201915b50505050508152602001600382018054611fde90613376565b80601f016020809104026020016040519081016040528092919081815260200182805461200a90613376565b80156120575780601f1061202c57610100808354040283529160200191612057565b820191906000526020600020905b81548152906001019060200180831161203a57829003601f168201915b50505050508152602001600482015481526020016005820154815260200160068201805461208490613376565b80601f01602080910402602001604051908101604052809291908181526020018280546120b090613376565b80156120fd5780601f106120d2576101008083540402835291602001916120fd565b820191906000526020600020905b8154815290600101906020018083116120e057829003601f168201915b5050505050815260200160078201805461211690613376565b80601f016020809104026020016040519081016040528092919081815260200182805461214290613376565b801561218f5780601f106121645761010080835404028352916020019161218f565b820191906000526020600020905b81548152906001019060200180831161217257829003601f168201915b505050505081526020016008820160009054906101000a900473ffffffffffffffffffffffffffffffffffffffff1673ffffffffffffffffffffffffffffffffffffffff1673ffffffffffffffffffffffffffffffffffffffff1681526020016009820154815250508152602001600e8201548152602001600f820154815260200160108201548152602001601182015481526020016012820160009054906101000a900460ff16151515158152505090508060c00151612285576040517f08c379a000000000000000000000000000000000000000000000000000000000815260040161227c90613419565b60405180910390fd5b80608001514210156122cc576040517f08c379a00000000000000000000000000000000000000000000000000000000081526004016122c390613bfa565b60405180910390fd5b60006122df826000015160400151611414565b90506122ef8361012001516129f4565b60008054906101000a900473ffffffffffffffffffffffffffffffffffffffff1673ffffffffffffffffffffffffffffffffffffffff166302a74af78461010001518560a001516040518363ffffffff1660e01b81526004016123539291906134e9565b600060405180830381600087803b15801561236d57600080fd5b505af1158015612381573d6000803e3d6000fd5b505050507f79ecef0a0a0ccd0f252af56eb1fbf4dc68a033eb9063da32311424b7c35267388360a001518461012001518561010001518460400151886040516123ce959493929190613c53565b60405180910390a15050505050565b60006123e833611414565b606001511461242c576040517f08c379a000000000000000000000000000000000000000000000000000000000815260040161242390613d1f565b60405180910390fd5b6005600081548092919061243f9061387d565b9190505550600060405180608001604052808481526020018381526020013373ffffffffffffffffffffffffffffffffffffffff168152602001600554815250905080600260003373ffffffffffffffffffffffffffffffffffffffff1673ffffffffffffffffffffffffffffffffffffffff16815260200190815260200160002060008201518160000190816124d69190613a71565b5060208201518160010190816124ec9190613a71565b5060408201518160020160006101000a81548173ffffffffffffffffffffffffffffffffffffffff021916908373ffffffffffffffffffffffffffffffffffffffff16021790555060608201518160030155905050505050565b61254e612a64565b60005b6001805490508110156129b357826001828154811061257357612572613d3f565b5b90600052602060002090600a020160090154036129a0576001818154811061259e5761259d613d3f565b5b90600052602060002090600a0201604051806101400160405290816000820180546125c890613376565b80601f01602080910402602001604051908101604052809291908181526020018280546125f490613376565b80156126415780601f1061261657610100808354040283529160200191612641565b820191906000526020600020905b81548152906001019060200180831161262457829003601f168201915b5050505050815260200160018201805461265a90613376565b80601f016020809104026020016040519081016040528092919081815260200182805461268690613376565b80156126d35780601f106126a8576101008083540402835291602001916126d3565b820191906000526020600020905b8154815290600101906020018083116126b657829003601f168201915b505050505081526020016002820180546126ec90613376565b80601f016020809104026020016040519081016040528092919081815260200182805461271890613376565b80156127655780601f1061273a57610100808354040283529160200191612765565b820191906000526020600020905b81548152906001019060200180831161274857829003601f168201915b5050505050815260200160038201805461277e90613376565b80601f01602080910402602001604051908101604052809291908181526020018280546127aa90613376565b80156127f75780601f106127cc576101008083540402835291602001916127f7565b820191906000526020600020905b8154815290600101906020018083116127da57829003601f168201915b50505050508152602001600482015481526020016005820154815260200160068201805461282490613376565b80601f016020809104026020016040519081016040528092919081815260200182805461285090613376565b801561289d5780601f106128725761010080835404028352916020019161289d565b820191906000526020600020905b81548152906001019060200180831161288057829003601f168201915b505050505081526020016007820180546128b690613376565b80601f01602080910402602001604051908101604052809291908181526020018280546128e290613376565b801561292f5780601f106129045761010080835404028352916020019161292f565b820191906000526020600020905b81548152906001019060200180831161291257829003601f168201915b505050505081526020016008820160009054906101000a900473ffffffffffffffffffffffffffffffffffffffff1673ffffffffffffffffffffffffffffffffffffffff1673ffffffffffffffffffffffffffffffffffffffff1681526020016009820154815250509150506129ef565b80806129ab9061387d565b915050612551565b506040517f08c379a00000000000000000000000000000000000000000000000000000000081526004016129e690613dba565b60405180910390fd5b919050565b60006003600083815260200190815260200160002060120160006101000a81548160ff02191690831515021790555050565b60405180608001604052806060815260200160608152602001600073ffffffffffffffffffffffffffffffffffffffff168152602001600081525090565b6040518061014001604052806060815260200160608152602001606081526020016060815260200160008152602001600081526020016060815260200160608152602001600073ffffffffffffffffffffffffffffffffffffffff168152602001600081525090565b6000604051905090565b600080fd5b600080fd5b6000819050919050565b612af481612ae1565b8114612aff57600080fd5b50565b600081359050612b1181612aeb565b92915050565b600060208284031215612b2d57612b2c612ad7565b5b6000612b3b84828501612b02565b91505092915050565b600080600060608486031215612b5d57612b5c612ad7565b5b6000612b6b86828701612b02565b9350506020612b7c86828701612b02565b9250506040612b8d86828701612b02565b9150509250925092565b600073ffffffffffffffffffffffffffffffffffffffff82169050919050565b6000612bc282612b97565b9050919050565b612bd281612bb7565b8114612bdd57600080fd5b50565b600081359050612bef81612bc9565b92915050565b600060208284031215612c0b57612c0a612ad7565b5b6000612c1984828501612be0565b91505092915050565b600081519050919050565b600082825260208201905092915050565b60005b83811015612c5c578082015181840152602081019050612c41565b60008484015250505050565b6000601f19601f8301169050919050565b6000612c8482612c22565b612c8e8185612c2d565b9350612c9e818560208601612c3e565b612ca781612c68565b840191505092915050565b612cbb81612bb7565b82525050565b612cca81612ae1565b82525050565b60006080830160008301518482036000860152612ced8282612c79565b91505060208301518482036020860152612d078282612c79565b9150506040830151612d1c6040860182612cb2565b506060830151612d2f6060860182612cc1565b508091505092915050565b60006020820190508181036000830152612d548184612cd0565b905092915050565b600080fd5b600080fd5b7f4e487b7100000000000000000000000000000000000000000000000000000000600052604160045260246000fd5b612d9e82612c68565b810181811067ffffffffffffffff82111715612dbd57612dbc612d66565b5b80604052505050565b6000612dd0612acd565b9050612ddc8282612d95565b919050565b600067ffffffffffffffff821115612dfc57612dfb612d66565b5b612e0582612c68565b9050602081019050919050565b82818337600083830152505050565b6000612e34612e2f84612de1565b612dc6565b905082815260208101848484011115612e5057612e4f612d61565b5b612e5b848285612e12565b509392505050565b600082601f830112612e7857612e77612d5c565b5b8135612e88848260208601612e21565b91505092915050565b600080600080600080600080610100898b031215612eb257612eb1612ad7565b5b600089013567ffffffffffffffff811115612ed057612ecf612adc565b5b612edc8b828c01612e63565b985050602089013567ffffffffffffffff811115612efd57612efc612adc565b5b612f098b828c01612e63565b975050604089013567ffffffffffffffff811115612f2a57612f29612adc565b5b612f368b828c01612e63565b965050606089013567ffffffffffffffff811115612f5757612f56612adc565b5b612f638b828c01612e63565b9550506080612f748b828c01612b02565b94505060a0612f858b828c01612b02565b93505060c089013567ffffffffffffffff811115612fa657612fa5612adc565b5b612fb28b828c01612e63565b92505060e089013567ffffffffffffffff811115612fd357612fd2612adc565b5b612fdf8b828c01612e63565b9150509295985092959890939650565b600081519050919050565b600082825260208201905092915050565b6000819050602082019050919050565b60006101408301600083015184820360008601526130398282612c79565b915050602083015184820360208601526130538282612c79565b9150506040830151848203604086015261306d8282612c79565b915050606083015184820360608601526130878282612c79565b915050608083015161309c6080860182612cc1565b5060a08301516130af60a0860182612cc1565b5060c083015184820360c08601526130c78282612c79565b91505060e083015184820360e08601526130e18282612c79565b9150506101008301516130f8610100860182612cb2565b5061012083015161310d610120860182612cc1565b508091505092915050565b6000613124838361301b565b905092915050565b6000602082019050919050565b600061314482612fef565b61314e8185612ffa565b9350836020820285016131608561300b565b8060005b8581101561319c578484038952815161317d8582613118565b94506131888361312c565b925060208a01995050600181019050613164565b50829750879550505050505092915050565b600060208201905081810360008301526131c88184613139565b905092915050565b600080604083850312156131e7576131e6612ad7565b5b60006131f585828601612b02565b925050602083013567ffffffffffffffff81111561321657613215612adc565b5b61322285828601612e63565b9150509250929050565b6000806040838503121561324357613242612ad7565b5b600083013567ffffffffffffffff81111561326157613260612adc565b5b61326d85828601612e63565b925050602083013567ffffffffffffffff81111561328e5761328d612adc565b5b61329a85828601612e63565b9150509250929050565b600082825260208201905092915050565b7f596f7520617265206e6f7420746865206f776e6572206f66207468697320766560008201527f6869636c65000000000000000000000000000000000000000000000000000000602082015250565b60006133116025836132a4565b915061331c826132b5565b604082019050919050565b6000602082019050818103600083015261334081613304565b9050919050565b7f4e487b7100000000000000000000000000000000000000000000000000000000600052602260045260246000fd5b6000600282049050600182168061338e57607f821691505b6020821081036133a1576133a0613347565b5b50919050565b7f436172206973206e6f742063757272656e746c79206265696e672072656e746560008201527f6400000000000000000000000000000000000000000000000000000000000000602082015250565b60006134036021836132a4565b915061340e826133a7565b604082019050919050565b60006020820190508181036000830152613432816133f6565b9050919050565b7f43616e6e6f742072657475726e206465706f73697420756e74696c20656e642060008201527f6f662072656e74616c0000000000000000000000000000000000000000000000602082015250565b60006134956029836132a4565b91506134a082613439565b604082019050919050565b600060208201905081810360008301526134c481613488565b9050919050565b6134d481612bb7565b82525050565b6134e381612ae1565b82525050565b60006040820190506134fe60008301856134cb565b61350b60208301846134da565b9392505050565b600060808201905061352760008301876134da565b61353460208301866134da565b61354160408301856134cb565b61354e60608301846134cb565b95945050505050565b7f54686973206164647265737320686173206e6f7420726567697374657265642060008201527f666f722072656e74696e672e0000000000000000000000000000000000000000602082015250565b60006135b3602c836132a4565b91506135be82613557565b604082019050919050565b600060208201905081810360008301526135e2816135a6565b9050919050565b7f4361722069732063757272656e746c792072656e746564000000000000000000600082015250565b600061361f6017836132a4565b915061362a826135e9565b602082019050919050565b6000602082019050818103600083015261364e81613612565b9050919050565b7f4e487b7100000000000000000000000000000000000000000000000000000000600052601160045260246000fd5b600061368f82612ae1565b915061369a83612ae1565b92508282039050818111156136b2576136b1613655565b5b92915050565b7f4e487b7100000000000000000000000000000000000000000000000000000000600052601260045260246000fd5b60006136f282612ae1565b91506136fd83612ae1565b92508261370d5761370c6136b8565b5b828204905092915050565b600061372382612ae1565b915061372e83612ae1565b925082820261373c81612ae1565b9150828204841483151761375357613752613655565b5b5092915050565b600060208201905061376f60008301846134cb565b92915050565b60008151905061378481612aeb565b92915050565b6000602082840312156137a05761379f612ad7565b5b60006137ae84828501613775565b91505092915050565b60006137c282612ae1565b91506137cd83612ae1565b92508282019050808211156137e5576137e4613655565b5b92915050565b7f496e73756666696369656e74204372797074436172436f696e2042616c616e6360008201527f6500000000000000000000000000000000000000000000000000000000000000602082015250565b60006138476021836132a4565b9150613852826137eb565b604082019050919050565b600060208201905081810360008301526138768161383a565b9050919050565b600061388882612ae1565b91507fffffffffffffffffffffffffffffffffffffffffffffffffffffffffffffffff82036138ba576138b9613655565b5b600182019050919050565b60008190508160005260206000209050919050565b60006020601f8301049050919050565b600082821b905092915050565b6000600883026139277fffffffffffffffffffffffffffffffffffffffffffffffffffffffffffffffff826138ea565b61393186836138ea565b95508019841693508086168417925050509392505050565b6000819050919050565b600061396e61396961396484612ae1565b613949565b612ae1565b9050919050565b6000819050919050565b61398883613953565b61399c61399482613975565b8484546138f7565b825550505050565b600090565b6139b16139a4565b6139bc81848461397f565b505050565b5b818110156139e0576139d56000826139a9565b6001810190506139c2565b5050565b601f821115613a25576139f6816138c5565b6139ff846138da565b81016020851015613a0e578190505b613a22613a1a856138da565b8301826139c1565b50505b505050565b600082821c905092915050565b6000613a4860001984600802613a2a565b1980831691505092915050565b6000613a618383613a37565b9150826002028217905092915050565b613a7a82612c22565b67ffffffffffffffff811115613a9357613a92612d66565b5b613a9d8254613376565b613aa88282856139e4565b600060209050601f831160018114613adb5760008415613ac9578287015190505b613ad38582613a55565b865550613b3b565b601f198416613ae9866138c5565b60005b82811015613b1157848901518255600182019150602085019450602081019050613aec565b86831015613b2e5784890151613b2a601f891682613a37565b8355505b6001600288020188555050505b505050505050565b6000608082019050613b5860008301876134cb565b613b6560208301866134cb565b613b7260408301856134da565b613b7f60608301846134da565b95945050505050565b7f43616e6e6f74206b656570206465706f73697420756e74696c20656e64206f6660008201527f2072656e74616c00000000000000000000000000000000000000000000000000602082015250565b6000613be46027836132a4565b9150613bef82613b88565b604082019050919050565b60006020820190508181036000830152613c1381613bd7565b9050919050565b6000613c2582612c22565b613c2f81856132a4565b9350613c3f818560208601612c3e565b613c4881612c68565b840191505092915050565b600060a082019050613c6860008301886134da565b613c7560208301876134da565b613c8260408301866134cb565b613c8f60608301856134cb565b8181036080830152613ca18184613c1a565b90509695505050505050565b7f5468697320616464726573732068617320616c7265616479207265676973746560008201527f7265642e00000000000000000000000000000000000000000000000000000000602082015250565b6000613d096024836132a4565b9150613d1482613cad565b604082019050919050565b60006020820190508181036000830152613d3881613cfc565b9050919050565b7f4e487b7100000000000000000000000000000000000000000000000000000000600052603260045260246000fd5b7f43617220646f6573206e6f742065786973742077697468207468617420696400600082015250565b6000613da4601f836132a4565b9150613daf82613d6e565b602082019050919050565b60006020820190508181036000830152613dd381613d97565b905091905056fea26469706673582212201331bad83e4529ac7af30e55bddc1840e3170e9d5b18b60feb37db358492603a64736f6c63430008130033",
  "linkReferences": {},
  "deployedLinkReferences": {}
}