{
  "contractName": "CryptCarCoin",
  "abi": [
    {
      "inputs": [
        {
          "internalType": "uint256",
          "name": "_max",
          "type": "uint256"
        }
      ],
      "stateMutability": "nonpayable",
      "type": "constructor"
    },
    {
      "inputs": [
        {
          "internalType": "address",
          "name": "cryptAddress",
          "type": "address"
        }
      ],
      "name": "setCryptCarAddress",
      "outputs": [],
      "stateMutability": "nonpayable",
      "type": "function"
    },
    {
      "inputs": [
        {
          "internalType": "uint256",
          "name": "amount",
          "type": "uint256"
        }
      ],
      "name": "mint",
      "outputs": [],
      "stateMutability": "nonpayable",
      "type": "function"
    },
    {
      "inputs": [],
      "name": "buy",
      "outputs": [],
      "stateMutability": "payable",
      "type": "function",
      "payable": true
    },
    {
      "inputs": [
        {
          "internalType": "uint256",
          "name": "amount",
          "type": "uint256"
        }
      ],
      "name": "sell",
      "outputs": [],
      "stateMutability": "nonpayable",
      "type": "function"
    },
    {
      "inputs": [
        {
          "internalType": "uint256",
          "name": "amount",
          "type": "uint256"
        },
        {
          "internalType": "address",
          "name": "receiver",
          "type": "address"
        }
      ],
      "name": "transfer",
      "outputs": [],
      "stateMutability": "nonpayable",
      "type": "function"
    },
    {
      "inputs": [
        {
          "internalType": "address",
          "name": "user",
          "type": "address"
        }
      ],
      "name": "getBalanceOfAddress",
      "outputs": [
        {
          "internalType": "uint256",
          "name": "",
          "type": "uint256"
        }
      ],
      "stateMutability": "view",
      "type": "function",
      "constant": true
    },
    {
      "inputs": [
        {
          "internalType": "address",
          "name": "renter",
          "type": "address"
        },
        {
          "internalType": "address",
          "name": "carOwner",
          "type": "address"
        },
        {
          "internalType": "uint256",
          "name": "amount",
          "type": "uint256"
        },
        {
          "internalType": "uint256",
          "name": "deposit",
          "type": "uint256"
        }
      ],
      "name": "transferTokensForRental",
      "outputs": [],
      "stateMutability": "nonpayable",
      "type": "function"
    },
    {
      "inputs": [
        {
          "internalType": "address",
          "name": "renter",
          "type": "address"
        },
        {
          "internalType": "uint256",
          "name": "amount",
          "type": "uint256"
        }
      ],
      "name": "returnRenterDeposit",
      "outputs": [],
      "stateMutability": "nonpayable",
      "type": "function"
    },
    {
      "inputs": [
        {
          "internalType": "address",
          "name": "_owner",
          "type": "address"
        },
        {
          "internalType": "uint256",
          "name": "amount",
          "type": "uint256"
        }
      ],
      "name": "keepRenterDeposit",
      "outputs": [],
      "stateMutability": "nonpayable",
      "type": "function"
    }
  ],
  "bytecode": "0x608060405260056004556000600560146101000a81548160ff0219169083151502179055503480156200003157600080fd5b50604051620013b6380380620013b68339818101604052810190620000579190620000ed565b806001819055506000600281905550336000806101000a81548173ffffffffffffffffffffffffffffffffffffffff021916908373ffffffffffffffffffffffffffffffffffffffff160217905550506200011f565b600080fd5b6000819050919050565b620000c781620000b2565b8114620000d357600080fd5b50565b600081519050620000e781620000bc565b92915050565b600060208284031215620001065762000105620000ad565b5b60006200011684828501620000d6565b91505092915050565b611287806200012f6000396000f3fe6080604052600436106100865760003560e01c8063a665c4a411610059578063a665c4a41461012f578063a6f2ae3a1461016c578063b2232a7f14610176578063b7760c8f1461019f578063e4849b32146101c857610086565b806302a74af71461008b5780633ff9e7e9146100b45780637bf7b3e6146100dd578063a0712d6814610106575b600080fd5b34801561009757600080fd5b506100b260048036038101906100ad9190610c36565b6101f1565b005b3480156100c057600080fd5b506100db60048036038101906100d69190610c76565b6102db565b005b3480156100e957600080fd5b5061010460048036038101906100ff9190610ca3565b61041e565b005b34801561011257600080fd5b5061012d60048036038101906101289190610d0a565b61056b565b005b34801561013b57600080fd5b5061015660048036038101906101519190610c76565b6106de565b6040516101639190610d46565b60405180910390f35b610174610727565b005b34801561018257600080fd5b5061019d60048036038101906101989190610c36565b610833565b005b3480156101ab57600080fd5b506101c660048036038101906101c19190610d61565b61091d565b005b3480156101d457600080fd5b506101ef60048036038101906101ea9190610d0a565b610a4f565b005b600560009054906101000a900473ffffffffffffffffffffffffffffffffffffffff1673ffffffffffffffffffffffffffffffffffffffff163373ffffffffffffffffffffffffffffffffffffffff1614610281576040517f08c379a000000000000000000000000000000000000000000000000000000000815260040161027890610dfe565b60405180910390fd5b80600360008473ffffffffffffffffffffffffffffffffffffffff1673ffffffffffffffffffffffffffffffffffffffff16815260200190815260200160002060008282546102d09190610e4d565b925050819055505050565b60008054906101000a900473ffffffffffffffffffffffffffffffffffffffff1673ffffffffffffffffffffffffffffffffffffffff163373ffffffffffffffffffffffffffffffffffffffff1614610369576040517f08c379a000000000000000000000000000000000000000000000000000000000815260040161036090610ef3565b60405180910390fd5b60001515600560149054906101000a900460ff161515146103bf576040517f08c379a00000000000000000000000000000000000000000000000000000000081526004016103b690610f5f565b60405180910390fd5b80600560006101000a81548173ffffffffffffffffffffffffffffffffffffffff021916908373ffffffffffffffffffffffffffffffffffffffff1602179055506001600560146101000a81548160ff02191690831515021790555050565b600560009054906101000a900473ffffffffffffffffffffffffffffffffffffffff1673ffffffffffffffffffffffffffffffffffffffff163373ffffffffffffffffffffffffffffffffffffffff16146104ae576040517f08c379a00000000000000000000000000000000000000000000000000000000081526004016104a590610dfe565b60405180910390fd5b80826104ba9190610e4d565b600360008673ffffffffffffffffffffffffffffffffffffffff1673ffffffffffffffffffffffffffffffffffffffff16815260200190815260200160002060008282546105089190610f7f565b9250508190555081600360008573ffffffffffffffffffffffffffffffffffffffff1673ffffffffffffffffffffffffffffffffffffffff168152602001908152602001600020600082825461055e9190610e4d565b9250508190555050505050565b60008054906101000a900473ffffffffffffffffffffffffffffffffffffffff1673ffffffffffffffffffffffffffffffffffffffff163373ffffffffffffffffffffffffffffffffffffffff16146105f9576040517f08c379a00000000000000000000000000000000000000000000000000000000081526004016105f090610ef3565b60405180910390fd5b6001548160025461060a9190610e4d565b111561064b576040517f08c379a000000000000000000000000000000000000000000000000000000000815260040161064290611025565b60405180910390fd5b80600360008060009054906101000a900473ffffffffffffffffffffffffffffffffffffffff1673ffffffffffffffffffffffffffffffffffffffff1673ffffffffffffffffffffffffffffffffffffffff16815260200190815260200160002060008282546106bb9190610e4d565b9250508190555080600260008282546106d49190610e4d565b9250508190555050565b6000600360008373ffffffffffffffffffffffffffffffffffffffff1673ffffffffffffffffffffffffffffffffffffffff168152602001908152602001600020549050919050565b6000600454346107379190611074565b90506000811161077c576040517f08c379a000000000000000000000000000000000000000000000000000000000815260040161077390611117565b60405180910390fd5b6001548111156107c1576040517f08c379a00000000000000000000000000000000000000000000000000000000081526004016107b890611183565b60405180910390fd5b80600360003373ffffffffffffffffffffffffffffffffffffffff1673ffffffffffffffffffffffffffffffffffffffff16815260200190815260200160002060008282546108109190610e4d565b9250508190555080600260008282546108299190610e4d565b9250508190555050565b600560009054906101000a900473ffffffffffffffffffffffffffffffffffffffff1673ffffffffffffffffffffffffffffffffffffffff163373ffffffffffffffffffffffffffffffffffffffff16146108c3576040517f08c379a00000000000000000000000000000000000000000000000000000000081526004016108ba90610dfe565b60405180910390fd5b80600360008473ffffffffffffffffffffffffffffffffffffffff1673ffffffffffffffffffffffffffffffffffffffff16815260200190815260200160002060008282546109129190610e4d565b925050819055505050565b81600360003373ffffffffffffffffffffffffffffffffffffffff1673ffffffffffffffffffffffffffffffffffffffff16815260200190815260200160002054101561099f576040517f08c379a0000000000000000000000000000000000000000000000000000000008152600401610996906111ef565b60405180910390fd5b81600360003373ffffffffffffffffffffffffffffffffffffffff1673ffffffffffffffffffffffffffffffffffffffff16815260200190815260200160002060008282546109ee9190610f7f565b9250508190555081600360008373ffffffffffffffffffffffffffffffffffffffff1673ffffffffffffffffffffffffffffffffffffffff1681526020019081526020016000206000828254610a449190610e4d565b925050819055505050565b80600360003373ffffffffffffffffffffffffffffffffffffffff1673ffffffffffffffffffffffffffffffffffffffff168152602001908152602001600020541015610ad1576040517f08c379a0000000000000000000000000000000000000000000000000000000008152600401610ac8906111ef565b60405180910390fd5b600060045482610ae1919061120f565b905081600360003373ffffffffffffffffffffffffffffffffffffffff1673ffffffffffffffffffffffffffffffffffffffff1681526020019081526020016000206000828254610b329190610f7f565b925050819055508160026000828254610b4b9190610f7f565b925050819055503373ffffffffffffffffffffffffffffffffffffffff166108fc829081150290604051600060405180830381858888f19350505050158015610b98573d6000803e3d6000fd5b505050565b600080fd5b600073ffffffffffffffffffffffffffffffffffffffff82169050919050565b6000610bcd82610ba2565b9050919050565b610bdd81610bc2565b8114610be857600080fd5b50565b600081359050610bfa81610bd4565b92915050565b6000819050919050565b610c1381610c00565b8114610c1e57600080fd5b50565b600081359050610c3081610c0a565b92915050565b60008060408385031215610c4d57610c4c610b9d565b5b6000610c5b85828601610beb565b9250506020610c6c85828601610c21565b9150509250929050565b600060208284031215610c8c57610c8b610b9d565b5b6000610c9a84828501610beb565b91505092915050565b60008060008060808587031215610cbd57610cbc610b9d565b5b6000610ccb87828801610beb565b9450506020610cdc87828801610beb565b9350506040610ced87828801610c21565b9250506060610cfe87828801610c21565b91505092959194509250565b600060208284031215610d2057610d1f610b9d565b5b6000610d2e84828501610c21565b91505092915050565b610d4081610c00565b82525050565b6000602082019050610d5b6000830184610d37565b92915050565b60008060408385031215610d7857610d77610b9d565b5b6000610d8685828601610c21565b9250506020610d9785828601610beb565b9150509250929050565b600082825260208201905092915050565b7f596f7520646f206e6f742068617665207065726d697373696f6e2e0000000000600082015250565b6000610de8601b83610da1565b9150610df382610db2565b602082019050919050565b60006020820190508181036000830152610e1781610ddb565b9050919050565b7f4e487b7100000000000000000000000000000000000000000000000000000000600052601160045260246000fd5b6000610e5882610c00565b9150610e6383610c00565b9250828201905080821115610e7b57610e7a610e1e565b5b92915050565b7f596f7520617265206e6f7420746865206f776e6572206f66207468697320636f60008201527f6e74726163742e00000000000000000000000000000000000000000000000000602082015250565b6000610edd602783610da1565b9150610ee882610e81565b604082019050919050565b60006020820190508181036000830152610f0c81610ed0565b9050919050565b7f416464726573732068617320616c7265616479206265656e207365742e000000600082015250565b6000610f49601d83610da1565b9150610f5482610f13565b602082019050919050565b60006020820190508181036000830152610f7881610f3c565b9050919050565b6000610f8a82610c00565b9150610f9583610c00565b9250828203905081811115610fad57610fac610e1e565b5b92915050565b7f416d6f756e742065786365656473206d617820737570706c792072657374726960008201527f6374696f6e2e0000000000000000000000000000000000000000000000000000602082015250565b600061100f602683610da1565b915061101a82610fb3565b604082019050919050565b6000602082019050818103600083015261103e81611002565b9050919050565b7f4e487b7100000000000000000000000000000000000000000000000000000000600052601260045260246000fd5b600061107f82610c00565b915061108a83610c00565b92508261109a57611099611045565b5b828204905092915050565b7f416d6f756e742063616e6e6f7420626520657175616c20746f206f72206c657360008201527f73207468616e20302e0000000000000000000000000000000000000000000000602082015250565b6000611101602983610da1565b915061110c826110a5565b604082019050919050565b60006020820190508181036000830152611130816110f4565b9050919050565b7f4e6f7420656e6f75676820746f6b656e7320617661696c61626c650000000000600082015250565b600061116d601b83610da1565b915061117882611137565b602082019050919050565b6000602082019050818103600083015261119c81611160565b9050919050565b7f496e73756666696369656e7420746f6b656e20616d6f756e7400000000000000600082015250565b60006111d9601983610da1565b91506111e4826111a3565b602082019050919050565b60006020820190508181036000830152611208816111cc565b9050919050565b600061121a82610c00565b915061122583610c00565b925082820261123381610c00565b9150828204841483151761124a57611249610e1e565b5b509291505056fea2646970667358221220046212db8dd8e3caf89525383dec02a746a113f37c7547cecc9cdd86ab0cf70f64736f6c63430008130033",
  "immutableReferences": {},
  "source": "// SPDX-License-Identifier: MIT\npragma solidity ^0.8.19;\n\ncontract CryptCarCoin {\n\n    address owner;\n    uint256 maxSupply;\n    uint256 currentSupply;\n    mapping(address => uint256) balances;\n    uint256 tokenPrice = 5; // Price in wei\n    address CryptCarAddress;\n    bool addressSet = false;\n\n    modifier onlyOwner() {\n        require(msg.sender == owner, \"You are not the owner of this contract.\");\n        _;\n    }\n\n    modifier onlyCryptCar() {\n        require(msg.sender == CryptCarAddress, \"You do not have permission.\");\n        _;\n    }\n\n    constructor(uint256 _max) {\n        maxSupply = _max;\n        currentSupply = 0;\n        owner = msg.sender;\n    }\n\n    function setCryptCarAddress(address cryptAddress) public onlyOwner {\n        require(addressSet == false, \"Address has already been set.\");\n        CryptCarAddress = cryptAddress;\n        addressSet = true;\n    }\n\n    function mint(uint256 amount) public onlyOwner {\n        require(currentSupply + amount <= maxSupply, \"Amount exceeds max supply restriction.\");\n        balances[owner] += amount;\n        currentSupply += amount;\n    }\n\n    function buy() public payable {\n        uint256 amount = msg.value / tokenPrice;\n        require(amount > 0, \"Amount cannot be equal to or less than 0.\");\n        require(amount <= maxSupply, \"Not enough tokens available\");\n\n        balances[msg.sender] += amount;\n        currentSupply += amount;\n    }\n\n    function sell(uint256 amount) public {\n        require(balances[msg.sender] >= amount, \"Insufficient token amount\");\n        uint256 ethAmount = amount * tokenPrice;\n        \n        balances[msg.sender] -= amount;\n        currentSupply -= amount;\n        payable(msg.sender).transfer(ethAmount);\n    }\n\n    function transfer(uint256 amount, address receiver) public {\n        require(balances[msg.sender] >= amount, \"Insufficient token amount\");\n\n        balances[msg.sender] -= amount;\n        balances[receiver] += amount;\n    }\n\n    function getBalanceOfAddress(address user) public view returns (uint256) {\n        return balances[user];\n    }\n\n    function transferTokensForRental(address renter, address carOwner, uint256 amount, uint256 deposit) external onlyCryptCar {\n        balances[renter] -= (amount + deposit);\n        balances[carOwner] += amount;\n    }\n\n    function returnRenterDeposit(address renter, uint256 amount) external onlyCryptCar {\n        balances[renter] += amount;\n    }\n\n    function keepRenterDeposit(address _owner, uint256 amount) external onlyCryptCar {\n        balances[_owner] += amount;\n    }\n}",
  "sourcePath": "/Users/connormckenzie/Documents/Projects/Crypto/CryptCar/contracts/CryptCarCoin.sol",
  "compiler": {
    "name": "solc",
    "version": "0.8.19+commit.7dd6d404.Emscripten.clang"
  },
  "schemaVersion": "3.4.16",
  "updatedAt": "2024-05-22T15:57:57.478Z",
  "networkType": "ethereum",
  "devdoc": {
    "kind": "dev",
    "methods": {},
    "version": 1
  },
  "userdoc": {
    "kind": "user",
    "methods": {},
    "version": 1
  }
}