{
  "contractName": "CryptCar",
  "abi": [
    {
      "inputs": [
        {
          "internalType": "contract CryptCarCoin",
          "name": "_token",
          "type": "address"
        }
      ],
      "stateMutability": "nonpayable",
      "type": "constructor"
    },
    {
      "anonymous": false,
      "inputs": [
        {
          "indexed": false,
          "internalType": "uint256",
          "name": "amount",
          "type": "uint256"
        },
        {
          "indexed": false,
          "internalType": "uint256",
          "name": "carID",
          "type": "uint256"
        },
        {
          "indexed": false,
          "internalType": "address",
          "name": "owner",
          "type": "address"
        },
        {
          "indexed": false,
          "internalType": "address",
          "name": "renter",
          "type": "address"
        },
        {
          "indexed": false,
          "internalType": "string",
          "name": "reason",
          "type": "string"
        }
      ],
      "name": "DepositKept",
      "type": "event"
    },
    {
      "anonymous": false,
      "inputs": [
        {
          "indexed": false,
          "internalType": "uint256",
          "name": "amount",
          "type": "uint256"
        },
        {
          "indexed": false,
          "internalType": "uint256",
          "name": "carID",
          "type": "uint256"
        },
        {
          "indexed": false,
          "internalType": "address",
          "name": "owner",
          "type": "address"
        },
        {
          "indexed": false,
          "internalType": "address",
          "name": "renter",
          "type": "address"
        }
      ],
      "name": "DepositReturned",
      "type": "event"
    },
    {
      "inputs": [
        {
          "internalType": "string",
          "name": "_brand",
          "type": "string"
        },
        {
          "internalType": "string",
          "name": "_model",
          "type": "string"
        },
        {
          "internalType": "string",
          "name": "_imageURL",
          "type": "string"
        },
        {
          "internalType": "string",
          "name": "_description",
          "type": "string"
        },
        {
          "internalType": "uint256",
          "name": "_pricePerDay",
          "type": "uint256"
        },
        {
          "internalType": "uint256",
          "name": "_depositAmount",
          "type": "uint256"
        },
        {
          "internalType": "string",
          "name": "_termsAndConditions",
          "type": "string"
        },
        {
          "internalType": "string",
          "name": "_location",
          "type": "string"
        }
      ],
      "name": "registerCarForRental",
      "outputs": [],
      "stateMutability": "nonpayable",
      "type": "function"
    },
    {
      "inputs": [],
      "name": "getRentalCars",
      "outputs": [
        {
          "components": [
            {
              "internalType": "string",
              "name": "brand",
              "type": "string"
            },
            {
              "internalType": "string",
              "name": "model",
              "type": "string"
            },
            {
              "internalType": "string",
              "name": "imageURL",
              "type": "string"
            },
            {
              "internalType": "string",
              "name": "description",
              "type": "string"
            },
            {
              "internalType": "uint256",
              "name": "pricePerDay",
              "type": "uint256"
            },
            {
              "internalType": "uint256",
              "name": "depositAmount",
              "type": "uint256"
            },
            {
              "internalType": "string",
              "name": "termsAndConditions",
              "type": "string"
            },
            {
              "internalType": "string",
              "name": "location",
              "type": "string"
            },
            {
              "internalType": "address",
              "name": "owner",
              "type": "address"
            },
            {
              "internalType": "uint256",
              "name": "id",
              "type": "uint256"
            }
          ],
          "internalType": "struct CryptCar.RentalCar[]",
          "name": "",
          "type": "tuple[]"
        }
      ],
      "stateMutability": "view",
      "type": "function",
      "constant": true
    },
    {
      "inputs": [
        {
          "internalType": "string",
          "name": "forename",
          "type": "string"
        },
        {
          "internalType": "string",
          "name": "surname",
          "type": "string"
        }
      ],
      "name": "registerForRenting",
      "outputs": [],
      "stateMutability": "nonpayable",
      "type": "function"
    },
    {
      "inputs": [
        {
          "internalType": "address",
          "name": "user",
          "type": "address"
        }
      ],
      "name": "getRenter",
      "outputs": [
        {
          "components": [
            {
              "internalType": "string",
              "name": "forename",
              "type": "string"
            },
            {
              "internalType": "string",
              "name": "surname",
              "type": "string"
            },
            {
              "internalType": "address",
              "name": "user",
              "type": "address"
            },
            {
              "internalType": "uint256",
              "name": "id",
              "type": "uint256"
            }
          ],
          "internalType": "struct CryptCar.Renter",
          "name": "",
          "type": "tuple"
        }
      ],
      "stateMutability": "view",
      "type": "function",
      "constant": true
    },
    {
      "inputs": [
        {
          "internalType": "uint256",
          "name": "carID",
          "type": "uint256"
        },
        {
          "internalType": "uint256",
          "name": "startDate",
          "type": "uint256"
        },
        {
          "internalType": "uint256",
          "name": "endDate",
          "type": "uint256"
        }
      ],
      "name": "rentCar",
      "outputs": [],
      "stateMutability": "nonpayable",
      "type": "function"
    },
    {
      "inputs": [
        {
          "internalType": "uint256",
          "name": "carID",
          "type": "uint256"
        }
      ],
      "name": "returnDeposit",
      "outputs": [],
      "stateMutability": "nonpayable",
      "type": "function"
    },
    {
      "inputs": [
        {
          "internalType": "uint256",
          "name": "carID",
          "type": "uint256"
        },
        {
          "internalType": "string",
          "name": "reason",
          "type": "string"
        }
      ],
      "name": "keepDeposit",
      "outputs": [],
      "stateMutability": "nonpayable",
      "type": "function"
    }
  ],
  "bytecode": "0x60806040526000600455600060055560006006553480156200002057600080fd5b5060405162003fa438038062003fa483398181016040528101906200004691906200010b565b806000806101000a81548173ffffffffffffffffffffffffffffffffffffffff021916908373ffffffffffffffffffffffffffffffffffffffff160217905550506200013d565b600080fd5b600073ffffffffffffffffffffffffffffffffffffffff82169050919050565b6000620000bf8262000092565b9050919050565b6000620000d382620000b2565b9050919050565b620000e581620000c6565b8114620000f157600080fd5b50565b6000815190506200010581620000da565b92915050565b6000602082840312156200012457620001236200008d565b5b60006200013484828501620000f4565b91505092915050565b613e57806200014d6000396000f3fe608060405234801561001057600080fd5b506004361061007d5760003560e01c80636df44ce01161005b5780636df44ce0146100ea5780637a7ad838146101065780638452ff6a14610124578063a8ddfa25146101405761007d565b806318b683fb146100825780634192440d1461009e5780636a4b27f4146100ba575b600080fd5b61009c60048036038101906100979190612af2565b61015c565b005b6100b860048036038101906100b39190612b1f565b61098c565b005b6100d460048036038101906100cf9190612bd0565b6113fb565b6040516100e19190612d15565b60405180910390f35b61010460048036038101906100ff9190612e6c565b6115d8565b005b61010e611776565b60405161011b9190613189565b60405180910390f35b61013e600480360381019061013991906131ab565b611bb6565b005b61015a60048036038101906101559190613207565b6123ea565b005b600061016782612553565b905080610100015173ffffffffffffffffffffffffffffffffffffffff163373ffffffffffffffffffffffffffffffffffffffff16146101dc576040517f08c379a00000000000000000000000000000000000000000000000000000000081526004016101d390613302565b60405180910390fd5b60006003600083610120015181526020019081526020016000206040518060c00160405290816000820160405180608001604052908160008201805461022190613351565b80601f016020809104026020016040519081016040528092919081815260200182805461024d90613351565b801561029a5780601f1061026f5761010080835404028352916020019161029a565b820191906000526020600020905b81548152906001019060200180831161027d57829003601f168201915b505050505081526020016001820180546102b390613351565b80601f01602080910402602001604051908101604052809291908181526020018280546102df90613351565b801561032c5780601f106103015761010080835404028352916020019161032c565b820191906000526020600020905b81548152906001019060200180831161030f57829003601f168201915b505050505081526020016002820160009054906101000a900473ffffffffffffffffffffffffffffffffffffffff1673ffffffffffffffffffffffffffffffffffffffff1673ffffffffffffffffffffffffffffffffffffffff168152602001600382015481525050815260200160048201604051806101400160405290816000820180546103ba90613351565b80601f01602080910402602001604051908101604052809291908181526020018280546103e690613351565b80156104335780601f1061040857610100808354040283529160200191610433565b820191906000526020600020905b81548152906001019060200180831161041657829003601f168201915b5050505050815260200160018201805461044c90613351565b80601f016020809104026020016040519081016040528092919081815260200182805461047890613351565b80156104c55780601f1061049a576101008083540402835291602001916104c5565b820191906000526020600020905b8154815290600101906020018083116104a857829003601f168201915b505050505081526020016002820180546104de90613351565b80601f016020809104026020016040519081016040528092919081815260200182805461050a90613351565b80156105575780601f1061052c57610100808354040283529160200191610557565b820191906000526020600020905b81548152906001019060200180831161053a57829003601f168201915b5050505050815260200160038201805461057090613351565b80601f016020809104026020016040519081016040528092919081815260200182805461059c90613351565b80156105e95780601f106105be576101008083540402835291602001916105e9565b820191906000526020600020905b8154815290600101906020018083116105cc57829003601f168201915b50505050508152602001600482015481526020016005820154815260200160068201805461061690613351565b80601f016020809104026020016040519081016040528092919081815260200182805461064290613351565b801561068f5780601f106106645761010080835404028352916020019161068f565b820191906000526020600020905b81548152906001019060200180831161067257829003601f168201915b505050505081526020016007820180546106a890613351565b80601f01602080910402602001604051908101604052809291908181526020018280546106d490613351565b80156107215780601f106106f657610100808354040283529160200191610721565b820191906000526020600020905b81548152906001019060200180831161070457829003601f168201915b505050505081526020016008820160009054906101000a900473ffffffffffffffffffffffffffffffffffffffff1673ffffffffffffffffffffffffffffffffffffffff1673ffffffffffffffffffffffffffffffffffffffff1681526020016009820154815250508152602001600e8201548152602001600f820154815260200160108201548152602001601182015481525050905060008160400151036107ff576040517f08c379a00000000000000000000000000000000000000000000000000000000081526004016107f6906133f4565b60405180910390fd5b8060800151421015610846576040517f08c379a000000000000000000000000000000000000000000000000000000000815260040161083d90613486565b60405180910390fd5b60006108598260000151604001516113fb565b905060008160600151036108a2576040517f08c379a0000000000000000000000000000000000000000000000000000000008152600401610899906134f2565b60405180910390fd5b60008054906101000a900473ffffffffffffffffffffffffffffffffffffffff1673ffffffffffffffffffffffffffffffffffffffff1663b2232a7f82604001518560a001516040518363ffffffff1660e01b8152600401610905929190613530565b600060405180830381600087803b15801561091f57600080fd5b505af1158015610933573d6000803e3d6000fd5b505050507f5a566b45dd9b189fc1b27321edb1190ebc23f70a8af381f1b7128a596f9c83b88360a00151846101200151856101000151846040015160405161097e9493929190613559565b60405180910390a150505050565b600061099784612553565b905060006109a4336113fb565b905060008160600151036109ed576040517f08c379a00000000000000000000000000000000000000000000000000000000081526004016109e490613610565b60405180910390fd5b60006003600084610120015181526020019081526020016000206040518060c001604052908160008201604051806080016040529081600082018054610a3290613351565b80601f0160208091040260200160405190810160405280929190818152602001828054610a5e90613351565b8015610aab5780601f10610a8057610100808354040283529160200191610aab565b820191906000526020600020905b815481529060010190602001808311610a8e57829003601f168201915b50505050508152602001600182018054610ac490613351565b80601f0160208091040260200160405190810160405280929190818152602001828054610af090613351565b8015610b3d5780601f10610b1257610100808354040283529160200191610b3d565b820191906000526020600020905b815481529060010190602001808311610b2057829003601f168201915b505050505081526020016002820160009054906101000a900473ffffffffffffffffffffffffffffffffffffffff1673ffffffffffffffffffffffffffffffffffffffff1673ffffffffffffffffffffffffffffffffffffffff16815260200160038201548152505081526020016004820160405180610140016040529081600082018054610bcb90613351565b80601f0160208091040260200160405190810160405280929190818152602001828054610bf790613351565b8015610c445780601f10610c1957610100808354040283529160200191610c44565b820191906000526020600020905b815481529060010190602001808311610c2757829003601f168201915b50505050508152602001600182018054610c5d90613351565b80601f0160208091040260200160405190810160405280929190818152602001828054610c8990613351565b8015610cd65780601f10610cab57610100808354040283529160200191610cd6565b820191906000526020600020905b815481529060010190602001808311610cb957829003601f168201915b50505050508152602001600282018054610cef90613351565b80601f0160208091040260200160405190810160405280929190818152602001828054610d1b90613351565b8015610d685780601f10610d3d57610100808354040283529160200191610d68565b820191906000526020600020905b815481529060010190602001808311610d4b57829003601f168201915b50505050508152602001600382018054610d8190613351565b80601f0160208091040260200160405190810160405280929190818152602001828054610dad90613351565b8015610dfa5780601f10610dcf57610100808354040283529160200191610dfa565b820191906000526020600020905b815481529060010190602001808311610ddd57829003601f168201915b505050505081526020016004820154815260200160058201548152602001600682018054610e2790613351565b80601f0160208091040260200160405190810160405280929190818152602001828054610e5390613351565b8015610ea05780601f10610e7557610100808354040283529160200191610ea0565b820191906000526020600020905b815481529060010190602001808311610e8357829003601f168201915b50505050508152602001600782018054610eb990613351565b80601f0160208091040260200160405190810160405280929190818152602001828054610ee590613351565b8015610f325780601f10610f0757610100808354040283529160200191610f32565b820191906000526020600020905b815481529060010190602001808311610f1557829003601f168201915b505050505081526020016008820160009054906101000a900473ffffffffffffffffffffffffffffffffffffffff1673ffffffffffffffffffffffffffffffffffffffff1673ffffffffffffffffffffffffffffffffffffffff1681526020016009820154815250508152602001600e8201548152602001600f82015481526020016010820154815260200160118201548152505090506000816040015114611010576040517f08c379a00000000000000000000000000000000000000000000000000000000081526004016110079061367c565b60405180910390fd5b60006018603c80888861102391906136cb565b61102d919061372e565b611037919061372e565b611041919061372e565b90506000818560800151611055919061375f565b905060008060009054906101000a900473ffffffffffffffffffffffffffffffffffffffff1673ffffffffffffffffffffffffffffffffffffffff1663a665c4a4336040518263ffffffff1660e01b81526004016110b391906137a1565b602060405180830381865afa1580156110d0573d6000803e3d6000fd5b505050506040513d601f19601f820116820180604052508101906110f491906137d1565b90508560a001518261110691906137fe565b811015611148576040517f08c379a000000000000000000000000000000000000000000000000000000000815260040161113f906138a4565b60405180910390fd5b6006600081548092919061115b906138c4565b919050555060006040518060c0016040528087815260200188815260200160065481526020018a81526020018981526020014281525090508060036000896101200151815260200190815260200160002060008201518160000160008201518160000190816111ca9190613ab8565b5060208201518160010190816111e09190613ab8565b5060408201518160020160006101000a81548173ffffffffffffffffffffffffffffffffffffffff021916908373ffffffffffffffffffffffffffffffffffffffff16021790555060608201518160030155505060208201518160040160008201518160000190816112529190613ab8565b5060208201518160010190816112689190613ab8565b50604082015181600201908161127e9190613ab8565b5060608201518160030190816112949190613ab8565b506080820151816004015560a0820151816005015560c08201518160060190816112be9190613ab8565b5060e08201518160070190816112d49190613ab8565b506101008201518160080160006101000a81548173ffffffffffffffffffffffffffffffffffffffff021916908373ffffffffffffffffffffffffffffffffffffffff16021790555061012082015181600901555050604082015181600e0155606082015181600f01556080820151816010015560a0820151816011015590505060008054906101000a900473ffffffffffffffffffffffffffffffffffffffff1673ffffffffffffffffffffffffffffffffffffffff16637bf7b3e633896101000151868b60a001516040518563ffffffff1660e01b81526004016113bd9493929190613b8a565b600060405180830381600087803b1580156113d757600080fd5b505af11580156113eb573d6000803e3d6000fd5b5050505050505050505050505050565b611403612a01565b600260008373ffffffffffffffffffffffffffffffffffffffff1673ffffffffffffffffffffffffffffffffffffffff16815260200190815260200160002060405180608001604052908160008201805461145d90613351565b80601f016020809104026020016040519081016040528092919081815260200182805461148990613351565b80156114d65780601f106114ab576101008083540402835291602001916114d6565b820191906000526020600020905b8154815290600101906020018083116114b957829003601f168201915b505050505081526020016001820180546114ef90613351565b80601f016020809104026020016040519081016040528092919081815260200182805461151b90613351565b80156115685780601f1061153d57610100808354040283529160200191611568565b820191906000526020600020905b81548152906001019060200180831161154b57829003601f168201915b505050505081526020016002820160009054906101000a900473ffffffffffffffffffffffffffffffffffffffff1673ffffffffffffffffffffffffffffffffffffffff1673ffffffffffffffffffffffffffffffffffffffff1681526020016003820154815250509050919050565b600460008154809291906115eb906138c4565b919050555060006040518061014001604052808a81526020018981526020018881526020018781526020018681526020018581526020018481526020018381526020013373ffffffffffffffffffffffffffffffffffffffff168152602001600454815250905060018190806001815401808255809150506001900390600052602060002090600a020160009091909190915060008201518160000190816116939190613ab8565b5060208201518160010190816116a99190613ab8565b5060408201518160020190816116bf9190613ab8565b5060608201518160030190816116d59190613ab8565b506080820151816004015560a0820151816005015560c08201518160060190816116ff9190613ab8565b5060e08201518160070190816117159190613ab8565b506101008201518160080160006101000a81548173ffffffffffffffffffffffffffffffffffffffff021916908373ffffffffffffffffffffffffffffffffffffffff16021790555061012082015181600901555050505050505050505050565b60606001805480602002602001604051908101604052809291908181526020016000905b82821015611bad57838290600052602060002090600a0201604051806101400160405290816000820180546117ce90613351565b80601f01602080910402602001604051908101604052809291908181526020018280546117fa90613351565b80156118475780601f1061181c57610100808354040283529160200191611847565b820191906000526020600020905b81548152906001019060200180831161182a57829003601f168201915b5050505050815260200160018201805461186090613351565b80601f016020809104026020016040519081016040528092919081815260200182805461188c90613351565b80156118d95780601f106118ae576101008083540402835291602001916118d9565b820191906000526020600020905b8154815290600101906020018083116118bc57829003601f168201915b505050505081526020016002820180546118f290613351565b80601f016020809104026020016040519081016040528092919081815260200182805461191e90613351565b801561196b5780601f106119405761010080835404028352916020019161196b565b820191906000526020600020905b81548152906001019060200180831161194e57829003601f168201915b5050505050815260200160038201805461198490613351565b80601f01602080910402602001604051908101604052809291908181526020018280546119b090613351565b80156119fd5780601f106119d2576101008083540402835291602001916119fd565b820191906000526020600020905b8154815290600101906020018083116119e057829003601f168201915b505050505081526020016004820154815260200160058201548152602001600682018054611a2a90613351565b80601f0160208091040260200160405190810160405280929190818152602001828054611a5690613351565b8015611aa35780601f10611a7857610100808354040283529160200191611aa3565b820191906000526020600020905b815481529060010190602001808311611a8657829003601f168201915b50505050508152602001600782018054611abc90613351565b80601f0160208091040260200160405190810160405280929190818152602001828054611ae890613351565b8015611b355780601f10611b0a57610100808354040283529160200191611b35565b820191906000526020600020905b815481529060010190602001808311611b1857829003601f168201915b505050505081526020016008820160009054906101000a900473ffffffffffffffffffffffffffffffffffffffff1673ffffffffffffffffffffffffffffffffffffffff1673ffffffffffffffffffffffffffffffffffffffff1681526020016009820154815250508152602001906001019061179a565b50505050905090565b6000611bc183612553565b905080610100015173ffffffffffffffffffffffffffffffffffffffff163373ffffffffffffffffffffffffffffffffffffffff1614611c36576040517f08c379a0000000000000000000000000000000000000000000000000000000008152600401611c2d90613302565b60405180910390fd5b60006003600083610120015181526020019081526020016000206040518060c001604052908160008201604051806080016040529081600082018054611c7b90613351565b80601f0160208091040260200160405190810160405280929190818152602001828054611ca790613351565b8015611cf45780601f10611cc957610100808354040283529160200191611cf4565b820191906000526020600020905b815481529060010190602001808311611cd757829003601f168201915b50505050508152602001600182018054611d0d90613351565b80601f0160208091040260200160405190810160405280929190818152602001828054611d3990613351565b8015611d865780601f10611d5b57610100808354040283529160200191611d86565b820191906000526020600020905b815481529060010190602001808311611d6957829003601f168201915b505050505081526020016002820160009054906101000a900473ffffffffffffffffffffffffffffffffffffffff1673ffffffffffffffffffffffffffffffffffffffff1673ffffffffffffffffffffffffffffffffffffffff16815260200160038201548152505081526020016004820160405180610140016040529081600082018054611e1490613351565b80601f0160208091040260200160405190810160405280929190818152602001828054611e4090613351565b8015611e8d5780601f10611e6257610100808354040283529160200191611e8d565b820191906000526020600020905b815481529060010190602001808311611e7057829003601f168201915b50505050508152602001600182018054611ea690613351565b80601f0160208091040260200160405190810160405280929190818152602001828054611ed290613351565b8015611f1f5780601f10611ef457610100808354040283529160200191611f1f565b820191906000526020600020905b815481529060010190602001808311611f0257829003601f168201915b50505050508152602001600282018054611f3890613351565b80601f0160208091040260200160405190810160405280929190818152602001828054611f6490613351565b8015611fb15780601f10611f8657610100808354040283529160200191611fb1565b820191906000526020600020905b815481529060010190602001808311611f9457829003601f168201915b50505050508152602001600382018054611fca90613351565b80601f0160208091040260200160405190810160405280929190818152602001828054611ff690613351565b80156120435780601f1061201857610100808354040283529160200191612043565b820191906000526020600020905b81548152906001019060200180831161202657829003601f168201915b50505050508152602001600482015481526020016005820154815260200160068201805461207090613351565b80601f016020809104026020016040519081016040528092919081815260200182805461209c90613351565b80156120e95780601f106120be576101008083540402835291602001916120e9565b820191906000526020600020905b8154815290600101906020018083116120cc57829003601f168201915b5050505050815260200160078201805461210290613351565b80601f016020809104026020016040519081016040528092919081815260200182805461212e90613351565b801561217b5780601f106121505761010080835404028352916020019161217b565b820191906000526020600020905b81548152906001019060200180831161215e57829003601f168201915b505050505081526020016008820160009054906101000a900473ffffffffffffffffffffffffffffffffffffffff1673ffffffffffffffffffffffffffffffffffffffff1673ffffffffffffffffffffffffffffffffffffffff1681526020016009820154815250508152602001600e8201548152602001600f82015481526020016010820154815260200160118201548152505090506000816040015103612259576040517f08c379a0000000000000000000000000000000000000000000000000000000008152600401612250906133f4565b60405180910390fd5b80608001514210156122a0576040517f08c379a000000000000000000000000000000000000000000000000000000000815260040161229790613c41565b60405180910390fd5b60006122b38260000151604001516113fb565b905060008160600151036122fc576040517f08c379a00000000000000000000000000000000000000000000000000000000081526004016122f3906134f2565b60405180910390fd5b60008054906101000a900473ffffffffffffffffffffffffffffffffffffffff1673ffffffffffffffffffffffffffffffffffffffff166302a74af78461010001518560a001516040518363ffffffff1660e01b8152600401612360929190613530565b600060405180830381600087803b15801561237a57600080fd5b505af115801561238e573d6000803e3d6000fd5b505050507f79ecef0a0a0ccd0f252af56eb1fbf4dc68a033eb9063da32311424b7c35267388360a001518461012001518561010001518460400151886040516123db959493929190613c9a565b60405180910390a15050505050565b60006123f5336113fb565b6060015114612439576040517f08c379a000000000000000000000000000000000000000000000000000000000815260040161243090613d66565b60405180910390fd5b6005600081548092919061244c906138c4565b9190505550600060405180608001604052808481526020018381526020013373ffffffffffffffffffffffffffffffffffffffff168152602001600554815250905080600260003373ffffffffffffffffffffffffffffffffffffffff1673ffffffffffffffffffffffffffffffffffffffff16815260200190815260200160002060008201518160000190816124e39190613ab8565b5060208201518160010190816124f99190613ab8565b5060408201518160020160006101000a81548173ffffffffffffffffffffffffffffffffffffffff021916908373ffffffffffffffffffffffffffffffffffffffff16021790555060608201518160030155905050505050565b61255b612a3f565b60005b6001805490508110156129c05782600182815481106125805761257f613d86565b5b90600052602060002090600a020160090154036129ad57600181815481106125ab576125aa613d86565b5b90600052602060002090600a0201604051806101400160405290816000820180546125d590613351565b80601f016020809104026020016040519081016040528092919081815260200182805461260190613351565b801561264e5780601f106126235761010080835404028352916020019161264e565b820191906000526020600020905b81548152906001019060200180831161263157829003601f168201915b5050505050815260200160018201805461266790613351565b80601f016020809104026020016040519081016040528092919081815260200182805461269390613351565b80156126e05780601f106126b5576101008083540402835291602001916126e0565b820191906000526020600020905b8154815290600101906020018083116126c357829003601f168201915b505050505081526020016002820180546126f990613351565b80601f016020809104026020016040519081016040528092919081815260200182805461272590613351565b80156127725780601f1061274757610100808354040283529160200191612772565b820191906000526020600020905b81548152906001019060200180831161275557829003601f168201915b5050505050815260200160038201805461278b90613351565b80601f01602080910402602001604051908101604052809291908181526020018280546127b790613351565b80156128045780601f106127d957610100808354040283529160200191612804565b820191906000526020600020905b8154815290600101906020018083116127e757829003601f168201915b50505050508152602001600482015481526020016005820154815260200160068201805461283190613351565b80601f016020809104026020016040519081016040528092919081815260200182805461285d90613351565b80156128aa5780601f1061287f576101008083540402835291602001916128aa565b820191906000526020600020905b81548152906001019060200180831161288d57829003601f168201915b505050505081526020016007820180546128c390613351565b80601f01602080910402602001604051908101604052809291908181526020018280546128ef90613351565b801561293c5780601f106129115761010080835404028352916020019161293c565b820191906000526020600020905b81548152906001019060200180831161291f57829003601f168201915b505050505081526020016008820160009054906101000a900473ffffffffffffffffffffffffffffffffffffffff1673ffffffffffffffffffffffffffffffffffffffff1673ffffffffffffffffffffffffffffffffffffffff1681526020016009820154815250509150506129fc565b80806129b8906138c4565b91505061255e565b506040517f08c379a00000000000000000000000000000000000000000000000000000000081526004016129f390613e01565b60405180910390fd5b919050565b60405180608001604052806060815260200160608152602001600073ffffffffffffffffffffffffffffffffffffffff168152602001600081525090565b6040518061014001604052806060815260200160608152602001606081526020016060815260200160008152602001600081526020016060815260200160608152602001600073ffffffffffffffffffffffffffffffffffffffff168152602001600081525090565b6000604051905090565b600080fd5b600080fd5b6000819050919050565b612acf81612abc565b8114612ada57600080fd5b50565b600081359050612aec81612ac6565b92915050565b600060208284031215612b0857612b07612ab2565b5b6000612b1684828501612add565b91505092915050565b600080600060608486031215612b3857612b37612ab2565b5b6000612b4686828701612add565b9350506020612b5786828701612add565b9250506040612b6886828701612add565b9150509250925092565b600073ffffffffffffffffffffffffffffffffffffffff82169050919050565b6000612b9d82612b72565b9050919050565b612bad81612b92565b8114612bb857600080fd5b50565b600081359050612bca81612ba4565b92915050565b600060208284031215612be657612be5612ab2565b5b6000612bf484828501612bbb565b91505092915050565b600081519050919050565b600082825260208201905092915050565b60005b83811015612c37578082015181840152602081019050612c1c565b60008484015250505050565b6000601f19601f8301169050919050565b6000612c5f82612bfd565b612c698185612c08565b9350612c79818560208601612c19565b612c8281612c43565b840191505092915050565b612c9681612b92565b82525050565b612ca581612abc565b82525050565b60006080830160008301518482036000860152612cc88282612c54565b91505060208301518482036020860152612ce28282612c54565b9150506040830151612cf76040860182612c8d565b506060830151612d0a6060860182612c9c565b508091505092915050565b60006020820190508181036000830152612d2f8184612cab565b905092915050565b600080fd5b600080fd5b7f4e487b7100000000000000000000000000000000000000000000000000000000600052604160045260246000fd5b612d7982612c43565b810181811067ffffffffffffffff82111715612d9857612d97612d41565b5b80604052505050565b6000612dab612aa8565b9050612db78282612d70565b919050565b600067ffffffffffffffff821115612dd757612dd6612d41565b5b612de082612c43565b9050602081019050919050565b82818337600083830152505050565b6000612e0f612e0a84612dbc565b612da1565b905082815260208101848484011115612e2b57612e2a612d3c565b5b612e36848285612ded565b509392505050565b600082601f830112612e5357612e52612d37565b5b8135612e63848260208601612dfc565b91505092915050565b600080600080600080600080610100898b031215612e8d57612e8c612ab2565b5b600089013567ffffffffffffffff811115612eab57612eaa612ab7565b5b612eb78b828c01612e3e565b985050602089013567ffffffffffffffff811115612ed857612ed7612ab7565b5b612ee48b828c01612e3e565b975050604089013567ffffffffffffffff811115612f0557612f04612ab7565b5b612f118b828c01612e3e565b965050606089013567ffffffffffffffff811115612f3257612f31612ab7565b5b612f3e8b828c01612e3e565b9550506080612f4f8b828c01612add565b94505060a0612f608b828c01612add565b93505060c089013567ffffffffffffffff811115612f8157612f80612ab7565b5b612f8d8b828c01612e3e565b92505060e089013567ffffffffffffffff811115612fae57612fad612ab7565b5b612fba8b828c01612e3e565b9150509295985092959890939650565b600081519050919050565b600082825260208201905092915050565b6000819050602082019050919050565b60006101408301600083015184820360008601526130148282612c54565b9150506020830151848203602086015261302e8282612c54565b915050604083015184820360408601526130488282612c54565b915050606083015184820360608601526130628282612c54565b91505060808301516130776080860182612c9c565b5060a083015161308a60a0860182612c9c565b5060c083015184820360c08601526130a28282612c54565b91505060e083015184820360e08601526130bc8282612c54565b9150506101008301516130d3610100860182612c8d565b506101208301516130e8610120860182612c9c565b508091505092915050565b60006130ff8383612ff6565b905092915050565b6000602082019050919050565b600061311f82612fca565b6131298185612fd5565b93508360208202850161313b85612fe6565b8060005b85811015613177578484038952815161315885826130f3565b945061316383613107565b925060208a0199505060018101905061313f565b50829750879550505050505092915050565b600060208201905081810360008301526131a38184613114565b905092915050565b600080604083850312156131c2576131c1612ab2565b5b60006131d085828601612add565b925050602083013567ffffffffffffffff8111156131f1576131f0612ab7565b5b6131fd85828601612e3e565b9150509250929050565b6000806040838503121561321e5761321d612ab2565b5b600083013567ffffffffffffffff81111561323c5761323b612ab7565b5b61324885828601612e3e565b925050602083013567ffffffffffffffff81111561326957613268612ab7565b5b61327585828601612e3e565b9150509250929050565b600082825260208201905092915050565b7f596f7520617265206e6f7420746865206f776e6572206f66207468697320766560008201527f6869636c65000000000000000000000000000000000000000000000000000000602082015250565b60006132ec60258361327f565b91506132f782613290565b604082019050919050565b6000602082019050818103600083015261331b816132df565b9050919050565b7f4e487b7100000000000000000000000000000000000000000000000000000000600052602260045260246000fd5b6000600282049050600182168061336957607f821691505b60208210810361337c5761337b613322565b5b50919050565b7f436172206973206e6f742063757272656e746c79206265696e672072656e746560008201527f6400000000000000000000000000000000000000000000000000000000000000602082015250565b60006133de60218361327f565b91506133e982613382565b604082019050919050565b6000602082019050818103600083015261340d816133d1565b9050919050565b7f43616e6e6f742072657475726e206465706f73697420756e74696c20656e642060008201527f6f662072656e74616c0000000000000000000000000000000000000000000000602082015250565b600061347060298361327f565b915061347b82613414565b604082019050919050565b6000602082019050818103600083015261349f81613463565b9050919050565b7f52656e74657220646f6573206e6f742065786973742e00000000000000000000600082015250565b60006134dc60168361327f565b91506134e7826134a6565b602082019050919050565b6000602082019050818103600083015261350b816134cf565b9050919050565b61351b81612b92565b82525050565b61352a81612abc565b82525050565b60006040820190506135456000830185613512565b6135526020830184613521565b9392505050565b600060808201905061356e6000830187613521565b61357b6020830186613521565b6135886040830185613512565b6135956060830184613512565b95945050505050565b7f54686973206164647265737320686173206e6f7420726567697374657265642060008201527f666f722072656e74696e672e0000000000000000000000000000000000000000602082015250565b60006135fa602c8361327f565b91506136058261359e565b604082019050919050565b60006020820190508181036000830152613629816135ed565b9050919050565b7f4361722069732063757272656e746c792072656e746564000000000000000000600082015250565b600061366660178361327f565b915061367182613630565b602082019050919050565b6000602082019050818103600083015261369581613659565b9050919050565b7f4e487b7100000000000000000000000000000000000000000000000000000000600052601160045260246000fd5b60006136d682612abc565b91506136e183612abc565b92508282039050818111156136f9576136f861369c565b5b92915050565b7f4e487b7100000000000000000000000000000000000000000000000000000000600052601260045260246000fd5b600061373982612abc565b915061374483612abc565b925082613754576137536136ff565b5b828204905092915050565b600061376a82612abc565b915061377583612abc565b925082820261378381612abc565b9150828204841483151761379a5761379961369c565b5b5092915050565b60006020820190506137b66000830184613512565b92915050565b6000815190506137cb81612ac6565b92915050565b6000602082840312156137e7576137e6612ab2565b5b60006137f5848285016137bc565b91505092915050565b600061380982612abc565b915061381483612abc565b925082820190508082111561382c5761382b61369c565b5b92915050565b7f496e73756666696369656e74204372797074436172436f696e2042616c616e6360008201527f6500000000000000000000000000000000000000000000000000000000000000602082015250565b600061388e60218361327f565b915061389982613832565b604082019050919050565b600060208201905081810360008301526138bd81613881565b9050919050565b60006138cf82612abc565b91507fffffffffffffffffffffffffffffffffffffffffffffffffffffffffffffffff82036139015761390061369c565b5b600182019050919050565b60008190508160005260206000209050919050565b60006020601f8301049050919050565b600082821b905092915050565b60006008830261396e7fffffffffffffffffffffffffffffffffffffffffffffffffffffffffffffffff82613931565b6139788683613931565b95508019841693508086168417925050509392505050565b6000819050919050565b60006139b56139b06139ab84612abc565b613990565b612abc565b9050919050565b6000819050919050565b6139cf8361399a565b6139e36139db826139bc565b84845461393e565b825550505050565b600090565b6139f86139eb565b613a038184846139c6565b505050565b5b81811015613a2757613a1c6000826139f0565b600181019050613a09565b5050565b601f821115613a6c57613a3d8161390c565b613a4684613921565b81016020851015613a55578190505b613a69613a6185613921565b830182613a08565b50505b505050565b600082821c905092915050565b6000613a8f60001984600802613a71565b1980831691505092915050565b6000613aa88383613a7e565b9150826002028217905092915050565b613ac182612bfd565b67ffffffffffffffff811115613ada57613ad9612d41565b5b613ae48254613351565b613aef828285613a2b565b600060209050601f831160018114613b225760008415613b10578287015190505b613b1a8582613a9c565b865550613b82565b601f198416613b308661390c565b60005b82811015613b5857848901518255600182019150602085019450602081019050613b33565b86831015613b755784890151613b71601f891682613a7e565b8355505b6001600288020188555050505b505050505050565b6000608082019050613b9f6000830187613512565b613bac6020830186613512565b613bb96040830185613521565b613bc66060830184613521565b95945050505050565b7f43616e6e6f74206b656570206465706f73697420756e74696c20656e64206f6660008201527f2072656e74616c00000000000000000000000000000000000000000000000000602082015250565b6000613c2b60278361327f565b9150613c3682613bcf565b604082019050919050565b60006020820190508181036000830152613c5a81613c1e565b9050919050565b6000613c6c82612bfd565b613c76818561327f565b9350613c86818560208601612c19565b613c8f81612c43565b840191505092915050565b600060a082019050613caf6000830188613521565b613cbc6020830187613521565b613cc96040830186613512565b613cd66060830185613512565b8181036080830152613ce88184613c61565b90509695505050505050565b7f5468697320616464726573732068617320616c7265616479207265676973746560008201527f7265642e00000000000000000000000000000000000000000000000000000000602082015250565b6000613d5060248361327f565b9150613d5b82613cf4565b604082019050919050565b60006020820190508181036000830152613d7f81613d43565b9050919050565b7f4e487b7100000000000000000000000000000000000000000000000000000000600052603260045260246000fd5b7f43617220646f6573206e6f742065786973742077697468207468617420696400600082015250565b6000613deb601f8361327f565b9150613df682613db5565b602082019050919050565b60006020820190508181036000830152613e1a81613dde565b905091905056fea2646970667358221220a2729c3b9945d4c6ca3d8ba9277ed3410519289d8574ffab5daa11acdfa2ff6464736f6c63430008130033",
  "immutableReferences": {},
  "source": "// SPDX-License-Identifier: MIT\npragma solidity ^0.8.19;\nimport \"./CryptCarCoin.sol\";\n\ncontract CryptCar {\n\n    struct RentalCar {\n        string brand;\n        string model;\n        string imageURL;\n        string description;\n        uint256 pricePerDay; // CryptCarCoins\n        uint256 depositAmount;\n        string termsAndConditions;\n        string location;\n        address owner;\n        uint256 id;\n    }\n\n    struct Renter {\n        string forename;\n        string surname;\n        address user;\n        uint256 id;\n    }\n\n    struct CarRented {\n        Renter renter;\n        RentalCar car;\n        uint256 rentalID;\n        uint256 startDate;\n        uint256 endDate;\n        uint256 timestamp;\n    }\n\n    event DepositReturned(\n        uint256 amount,\n        uint256 carID,\n        address owner,\n        address renter\n    );\n\n    event DepositKept(\n        uint256 amount,\n        uint256 carID,\n        address owner,\n        address renter,\n        string reason\n    );\n\n    CryptCarCoin private token;\n    RentalCar[] private rentalCars;\n    mapping(address => Renter) private renters; \n    mapping(uint256 => CarRented) private currentlyRentedCars;\n\n    uint256 private carCounter = 0;\n    uint256 private renterCounter = 0;\n    uint256 private rentalCounter = 0;\n\n    constructor(CryptCarCoin _token) {\n        token = _token;\n    }\n\n    function registerCarForRental(\n        string memory _brand,\n        string memory _model,\n        string memory _imageURL,\n        string memory _description,\n        uint256 _pricePerDay,\n        uint256 _depositAmount,\n        string memory _termsAndConditions,\n        string memory _location\n    ) public {\n        carCounter++;\n        RentalCar memory newCar = RentalCar(\n            _brand,\n            _model,\n            _imageURL,\n            _description,\n            _pricePerDay,\n            _depositAmount,\n            _termsAndConditions,\n            _location,\n            msg.sender,\n            carCounter\n        );\n        rentalCars.push(newCar);\n    }\n\n    function getRentalCars() public view returns (RentalCar[] memory) {\n        return rentalCars;\n    }\n\n    function getRentalCar(uint256 carID) internal view returns (RentalCar memory) {\n        for (uint i = 0; i < rentalCars.length; i++) {\n            if (rentalCars[i].id == carID) {\n                return rentalCars[i];\n            }\n        }\n\n        revert(\"Car does not exist with that id\");\n    }\n\n    function registerForRenting(\n        string memory forename,\n        string memory surname\n    ) public {\n        if (getRenter(msg.sender).id != 0) {\n            revert(\"This address has already registered.\");\n        }\n\n        renterCounter++;\n        Renter memory newRenter = Renter(forename, surname, msg.sender, renterCounter);\n        renters[msg.sender] = newRenter;\n    }\n\n    function getRenter(address user) public view returns (Renter memory) {\n        return renters[user];\n    }\n\n    function rentCar(uint256 carID, uint256 startDate, uint256 endDate) public {\n        RentalCar memory car = getRentalCar(carID);\n        Renter memory renter = getRenter(msg.sender);\n\n        if (renter.id == 0) {\n            revert(\"This address has not registered for renting.\");\n        }\n\n        CarRented memory existingRental = currentlyRentedCars[car.id];\n        require(existingRental.rentalID == 0, \"Car is currently rented\");\n\n        uint256 daysBetween = (endDate - startDate) / 60 / 60 / 24;\n        uint256 cost = car.pricePerDay * daysBetween;\n\n        uint256 renterBalance = token.getBalanceOfAddress(msg.sender);\n        require(renterBalance >= cost + car.depositAmount, \"Insufficient CryptCarCoin Balance\");\n        \n        rentalCounter++;\n        CarRented memory rental = CarRented(renter, car, rentalCounter, startDate, endDate, block.timestamp);\n        currentlyRentedCars[car.id] = rental;\n\n        token.transferTokensForRental(msg.sender, car.owner, cost, car.depositAmount);\n    }\n\n    function returnDeposit(uint256 carID) public {\n        RentalCar memory car = getRentalCar(carID);\n        require(msg.sender == car.owner, \"You are not the owner of this vehicle\");\n        \n        CarRented memory rental = currentlyRentedCars[car.id];\n        require(rental.rentalID != 0, \"Car is not currently being rented\");\n        require(block.timestamp >= rental.endDate, \"Cannot return deposit until end of rental\");\n        \n        Renter memory renter = getRenter(rental.renter.user);\n        require(renter.id != 0, \"Renter does not exist.\");\n\n        token.returnRenterDeposit(renter.user, car.depositAmount);\n\n        emit DepositReturned(car.depositAmount, car.id, car.owner, renter.user);\n    }\n\n    function keepDeposit(uint256 carID, string memory reason) public {\n        RentalCar memory car = getRentalCar(carID);\n        require(msg.sender == car.owner, \"You are not the owner of this vehicle\");\n        \n        CarRented memory rental = currentlyRentedCars[car.id];\n        require(rental.rentalID != 0, \"Car is not currently being rented\");\n        require(block.timestamp >= rental.endDate, \"Cannot keep deposit until end of rental\");\n        \n        Renter memory renter = getRenter(rental.renter.user);\n        require(renter.id != 0, \"Renter does not exist.\");\n\n        token.keepRenterDeposit(car.owner, car.depositAmount);\n        \n        emit DepositKept(car.depositAmount, car.id, car.owner, renter.user, reason);\n    }\n}",
  "sourcePath": "/Users/connormckenzie/Documents/Projects/Crypto/CryptCar/contracts/CryptCar.sol",
  "compiler": {
    "name": "solc",
    "version": "0.8.19+commit.7dd6d404.Emscripten.clang"
  },
  "schemaVersion": "3.4.16",
  "updatedAt": "2024-05-22T15:57:57.472Z",
  "networkType": "ethereum",
  "devdoc": {
    "kind": "dev",
    "methods": {},
    "version": 1
  },
  "userdoc": {
    "kind": "user",
    "methods": {},
    "version": 1
  }
}